:100000000C9444000C946C000C946C000C946C00E8
:100010000C946C000C946C000C946C000C946C00B0
:100020000C946C000C946C000C946C000C946C00A0
:100030000C946C000C946C000C946C000C946C0090
:100040000C946C000C946C000C946C000C946C0080
:100050000C946C000C946C000C946C000C946C0070
:100060000C946C000C946C0005A84CCDB2D44EB925
:100070003836A9020C50B9918688083CA6AAAA2A4B
:10008000BE000000803F020311241FBECFEFD8E066
:10009000DEBFCDBF11E0A0E0B1E0E4E9F3E102C0D2
:1000A00005900D92AE30B107D9F725E0AEE0B1E092
:1000B00001C01D92A031B207E1F710E0C4E4D0E026
:1000C00004C02197FE010E949806C334D107C9F7E6
:1000D0000E946E000C94C8090C9400008FE095E01B
:1000E0000E94EF0267E670E08FE095E00E94EA026E
:1000F0008EE0A82E84E0B82E9EE0C92E93E0D92E83
:100100002EE0222E22E0322E3EE0832E31E0932E8E
:1001100084017101C0E0D0E0412C512C40E8642EF4
:100120004FE3742EBE010D2E000C880B990B0E941C
:100130001B042BED3FE049E450E40E9478030E9449
:10014000FA0520E030E048E452E40E948D05F50114
:1001500061937193819391935F01F60111921192D2
:10016000119211926F01F701419251926192719235
:100170007F01F80141925192619271928F01249610
:10018000C115F1E0DF0771F62EE033E04EE054E0F8
:1001900066E080E40E944F01C0E0D0E0F4012191CC
:1001A0003191419151914F01F10161917191819191
:1001B00091911F010E94F4040E94EA0320E031E0C3
:1001C000AB01BE018EE095E00E94EB002196C032AB
:1001D000D10521F7FFCF8F929F92AF92BF92CF921E
:1001E000DF92EF92FF920F931F93CF93DF93CDB7E0
:1001F000DEB7EC970FB6F894DEBF0FBECDBFFB01A4
:100200004A01B22EA32E8E010D5C1F4F9AE0D80139
:10021000892F1D928A95E9F77E01A9E2EA0EF11C69
:10022000D7011D929A95E9F7CE0101966C018EE1F6
:10023000D6011D928A95E9F74AE050E0B801CF0156
:100240000E949E064AE050E0B701C4010E949E064B
:10025000FF92EF921F930F93AF92BF92DF92CF92D4
:100260000E94CE06B6018FE095E00E9400030FB613
:10027000F894DEBF0FBECDBFEC960FB6F894DEBF8C
:100280000FBECDBFDF91CF911F910F91FF90EF90E7
:10029000DF90CF90BF90AF909F908F9008952F9256
:1002A0003F924F925F926F927F928F929F92AF9206
:1002B000BF92CF92DF92EF92FF920F931F93CF9353
:1002C000DF93CDB7DEB76F970FB6F894DEBF0FBEE2
:1002D000CDBF8A876B8F8A011901682F669520E050
:1002E00031E0482F50E041505109E32FF0E0E4178E
:1002F000F50714F4962F04C021E02B8318864AC01A
:10030000291718F0291B9695FBCF290F3217D8F51E
:10031000CF01880F991F880F991F3801680E791E29
:10032000F301C080D180E280F380F4E02F9F2001B0
:100330001124D801A40DB51D8D909D90AD90BC9059
:100340001397F30180829182A282B382CD92DD92D3
:10035000ED92FC921397D101A80FB91FCD90DD90BB
:10036000ED90FC901397F201E20DF31D80809180D7
:10037000A280B3808D929D92AD92BC921397C08261
:10038000D182E282F3823F5FB0CF78857F5F78874A
:1003900089858B83F8852B8DF21709F4F9C03B8191
:1003A000330F3987632F70E080E090E00E941B04D8
:1003B0009B01AC016BED7FE089EC90EC0E9478032F
:1003C0006F8B788F898F9A8F1C821D821E821F826D
:1003D00019829B81892F90E09D8F8C8FE981FB8111
:1003E000EF1799F26C817D818E819F810E9473034A
:1003F0006B877C878D879E876C817D818E819F81B5
:100400000E94FA056F87788B898B9A8B2F89388D9C
:10041000498D5A8D6C817D818E819F810E94070359
:100420006C837D838E839F8329812A833A817A8599
:10043000371708F0A9C0832F90E09F8F8E8F8C8D87
:100440009D8DEE8DFF8D8E0F9F1F880F991F880F3A
:10045000991F9801280F391F3C8B2B8BF901408085
:100460005180628073809101280F391F3E8B2D8B44
:10047000F90180809180A280B380A30192016B85F5
:100480007C858D859E850E948D056B017C01A50173
:1004900094016F85788989899A890E948D059B01CD
:1004A000AC01C701B6010E9406036B017C01A301E8
:1004B00092016F85788989899A890E948D052B011F
:1004C0003C01A50194016B857C858D859E850E94EC
:1004D0008D059B01AC01C301B2010E9407034B01D2
:1004E0005C012E8D3F8D220F331F220F331F3F8F54
:1004F0002E8F3901600E711EA7019601F3016081F4
:100500007181828193810E940603EB89FC8960835B
:100510007183828393832E8D3F8D220D331D3C8BFF
:100520002B8BA5019401EB89FC896081718182810B
:1005300093810E940603ED89FE8960837183828323
:100540009383A7019601F301608171818281938178
:100550000E940703F3016083718382839383A50163
:100560009401EB89FC8960817181828193810E9471
:100570000703EB89FC896083718382839383FA810B
:100580002985F20FFA8352CF39813F5F398326CF15
:100590006F960FB6F894DEBF0FBECDBFDF91CF913F
:1005A0001F910F91FF90EF90DF90CF90BF90AF9091
:1005B0009F908F907F906F905F904F903F902F9083
:1005C000089588E18093C1001092C50083E1809373
:1005D000C40008957093C5006093C400089588E135
:1005E0008093C1000895FB018191BF01882339F0F8
:1005F0009091C00095FFFCCF8093C600F4CF089582
:100600000C94F3028FE095E00C94E1025058BB2764
:10061000AA270E941E030C9498040E945F0438F0DD
:100620000E94660420F039F49F3F19F426F40C94DC
:100630005C040EF4E095E7FB0C945604E92F0E944D
:10064000BD0458F3BA17620773078407950720F0B3
:1006500079F4A6F50C94DF040EF4E0950B2EBA2F76
:10066000A02D0B01B90190010C01CA01A0011124B8
:10067000FF27591B99F0593F50F4503E68F11A1664
:10068000F040A22F232F342F4427585FF3CF4695F5
:1006900037952795A795F0405395C9F77EF41F1617
:1006A000BA0B620B730B840BBAF09150A1F0FF0FE1
:1006B000BB1F661F771F881FC2F70EC0BA0F621FCD
:1006C000731F841F48F4879577956795B795F795BD
:1006D0009E3F08F0B0CF9395880F08F09927EE0F52
:1006E0009795879508950E946F04E3950C94A9044B
:1006F0000E948C030C9498040E94660458F00E9497
:100700005F0440F029F45F3F29F00C945604511126
:100710000C94E0040C945C040E94BD0468F39923DB
:10072000B1F3552391F3951B550BBB27AA276217ED
:100730007307840738F09F5F5F4F220F331F441FFA
:10074000AA1FA9F335D00E2E3AF0E0E832D091502E
:100750005040E695001CCAF72BD0FE2F29D0660F1B
:10076000771F881FBB1F261737074807AB07B0E85E
:1007700009F0BB0B802DBF01FF2793585F4F3AF064
:100780009E3F510578F00C9456040C94E0045F3FB2
:10079000E4F3983ED4F3869577956795B795F795EA
:1007A0009F5FC9F7880F911D9695879597F90895D2
:1007B000E1E0660F771F881FBB1F6217730784076E
:1007C000BA0720F0621B730B840BBA0BEE1F88F77D
:1007D000E09508950E94C50488F09F5798F0B92FBE
:1007E0009927B751B0F0E1F0660F771F881F991F66
:1007F0001AF0BA95C9F714C0B13091F00E94DF0425
:10080000B1E008950C94DF04672F782F8827B85F34
:1008100039F0B93FCCF3869577956795B395D9F7BD
:100820003EF490958095709561957F4F8F4F9F4FC7
:100830000895E89409C097FB3EF4909580957095D3
:1008400061957F4F8F4F9F4F9923A9F0F92F96E91C
:10085000BB279395F695879577956795B795F11191
:10086000F8CFFAF4BB0F11F460FF1BC06F5F7F4F2E
:100870008F4F9F4F16C0882311F096E911C0772340
:1008800021F09EE8872F762F05C0662371F096E849
:10089000862F70E060E02AF09A95660F771F881F18
:1008A000DAF7880F9695879597F9089597F99F67D6
:1008B00080E870E060E008959FEF80EC08950024E8
:1008C0000A941616170618060906089500240A94B5
:1008D000121613061406050608950C945C040E9473
:1008E000C504D8F3E894E0E0BB279F57F0F02AED69
:1008F0003FE049EC06C0EE0FBB0F661F771F881F55
:1009000028F0B23A62077307840728F0B25A620BE4
:10091000730B840BE3959A9572F7803830F49A95AF
:10092000BB0F661F771F881FD2F790480C944A06AA
:10093000092E0394000C11F4882352F0BB0F40F4ED
:10094000BF2B11F460FF04C06F5F7F4F8F4F9F4F2D
:100950000895EF93E0FF07C0A2EA2AED3FE049ECDB
:100960005FEB0E941E030E9498040F90039401FC09
:100970009058E8E6F0E00C945D0657FD9058440F5F
:10098000551F59F05F3F71F04795880F97FB991FEE
:1009900061F09F3F79F087950895121613061406AB
:1009A000551FF2CF4695F1DF08C016161706180638
:1009B000991FF1CF86957105610508940895E89413
:1009C000BB2766277727CB0197F908950E945F041C
:1009D00029F00E94660411F00C945C040C945604F7
:1009E000B901CA010C9448069F775F770E94BD0445
:1009F00068F39923A9F35523A9F3FF27951758F412
:100A0000E52FE91BED3060F75E3B10F0F1E41CC010
:100A10009034E0F40AC0E92FE51BED3018F79E3B57
:100A200010F0F1E411C0503488F4F9EA88232AF078
:100A30009A95660F771F881FDAF744232AF05A9594
:100A4000220F331F441FDAF79F1B5F1BFF931F9377
:100A50000F93FF92EF9279018A01BB27AB2F9B0185
:100A6000AC010E94A3059701A801BF937B018C01F3
:100A7000AA27BA2FB901CA010E94A305AF91970115
:100A8000A801EF90FF900F911F910E941E030E94FA
:100A900098040E9408064F9140FF0895552747FD8E
:100AA00050950C9457050C9456040C9448060E94DB
:100AB000C504D8F39923C9F3940F511DA3F39150A2
:100AC000504094F059F0882332F0660F771F881F4A
:100AD00091505040C1F79E3F51052CF7880F911D52
:100AE0009695879597F908955F3FACF0983E9CF0F6
:100AF000BB27869577956795B79508F4B160939570
:100B0000C1F7BB0F58F711F460FFE8CF6F5F7F4F5D
:100B10008F4F9F4FE3CF0C94E0040E94A0050C94EC
:100B200098040E945F0438F00E94660420F0952328
:100B300011F00C9456040C945C0411240C94E00401
:100B40000E94BD0470F3959FC1F3950F50E0551FAF
:100B5000629FF001729FBB27F00DB11D639FAA2712
:100B6000F00DB11DAA1F649F6627B00DA11D661F61
:100B7000829F2227B00DA11D621F739FB00DA11D82
:100B8000621F839FA00D611D221F749F3327A00D3C
:100B9000611D231F849F600D211D822F762F6A2FD8
:100BA00011249F5750409AF0F1F088234AF0EE0F3D
:100BB000FF1FBB1F661F771F881F91505040A9F76A
:100BC0009E3F510580F00C9456040C94E0045F3F66
:100BD000E4F3983ED4F3869577956795B795F795A6
:100BE000E7959F5FC1F7FE2B880F911D969587951E
:100BF00097F908959F930E946F040F9007FCEE5F92
:100C00000C94A90419F416F40C945C040C94480692
:100C10000E94C504B8F39923C9F3B6F39F57550B47
:100C200087FF0E9456060024A0E640EA9001805803
:100C30005695979528F4805C660F771F881F20F0E3
:100C400026173707480730F4621B730B840B2029E3
:100C500031294A2BA69517940794202531254A2738
:100C600058F7660F771F881F20F0261737074807A9
:100C700030F4620B730B840B200D311D411DA095C8
:100C800081F7B901842F9158880F9695879508951B
:100C90009F3F31F0915020F4879577956795B795F0
:100CA000880F911D9695879597F90895915050401A
:100CB000660F771F881FD2F708959F938F937F93B6
:100CC0006F93FF93EF939B01AC010E948D05EF9111
:100CD000FF910E9471062F913F914F915F910C946B
:100CE0008D05DF93CF931F930F93FF92EF92DF92C7
:100CF0007B018C01689406C0DA2EEF010E94A005EA
:100D0000FE01E894A5912591359145915591A6F361
:100D1000EF010E941E03FE019701A801DA9469F712
:100D2000DF90EF90FF900F911F91CF91DF91089589
:100D3000EE0FFF1F0590F491E02D09944532510507
:100D400020F4423010F00C94A906FB011082CB0174
:100D50000895BB274A3031F4992322F4BDE29095DF
:100D600081959F4F0C94B506BB27FB015527AA27F9
:100D7000880F991FAA1FA41710F0A41B8395505128
:100D8000B9F7A05DAA3308F0A95DA193009779F7A0
:100D9000B111B1931192CB010C94E708AEE0B0E031
:100DA000E4EDF6E00C949F090D891E8986E08C83A2
:100DB0001A8309838FEF9FE79E838D83AE01475E81
:100DC0005F4F6F89788DCE0101960E94F006EF810A
:100DD000F885E00FF11F10822E96E4E00C94BB0919
:100DE000ABE0B0E0E6EFF6E00C9491096C017B011A
:100DF0008A01FC0117821682838181FFCCC1CE015A
:100E000001963C01F6019381F70193FD859193FFD3
:100E100081917F01882309F4BAC1853239F493FDA9
:100E2000859193FF81917F01853229F4B60190E08D
:100E30000E94F708E7CF912C212C312CFFE1F3150C
:100E4000D8F08B3279F038F4803279F08332A1F423
:100E5000232D20611DC08D3261F0803369F4232D74
:100E6000216016C0832D8260382EE32DE4603E2E73
:100E70002AC0F32DF8601DC037FC2DC020ED280FCF
:100E80002A3040F08E32B9F436FC81C1232D206423
:100E9000322E19C036FE06C08AE0989E200D11241D
:100EA000922E11C0EAE02E9E200D1124222EF32D49
:100EB000F0623F2E08C08C3621F4832D8068382ED6
:100EC00002C0883641F4F70193FD859193FF81912B
:100ED0007F018111B3CF982F9F7D9554933028F4D3
:100EE0000C5F1F4F9FE399830DC0833631F083372A
:100EF00071F0833509F059C021C0F80180818983E0
:100F00000E5F1F4F88248394912C530113C0280136
:100F1000F2E04F0E511CF801A080B18036FE03C0F4
:100F2000692D70E002C06FEF7FEFC5010E94DC0801
:100F30004C018201F32DFF773F2E16C0280122E0DD
:100F4000420E511CF801A080B18036FE03C0692D0D
:100F500070E002C06FEF7FEFC5010E94D1084C0125
:100F6000F32DF0683F2E820133FC1BC0822D90E0F0
:100F700088169906B0F4B60180E290E00E94F70866
:100F80002A94F4CFF50137FC859137FE81915F01FA
:100F9000B60190E00E94F70821102A9421E0821AFD
:100FA00091088114910471F7E8C0843611F08936F4
:100FB00041F5F80137FE07C060817181828193811C
:100FC0000C5F1F4F08C060817181072E000C880BD9
:100FD000990B0E5F1F4FF32DFF763F2E97FF09C031
:100FE00090958095709561957F4F8F4F9F4FF068DA
:100FF0003F2E2AE030E0A3010E943309882E861894
:1010000045C0853731F4232D2F7EB22E2AE030E003
:1010100025C0932D997FB92E8F36C1F018F48835ED
:1010200079F0B5C0803719F0883721F0B0C0E92FCA
:10103000E061BE2EB4FE0DC0FB2DF460BF2E09C0D2
:1010400034FE0AC0292F2660B22E06C028E030E008
:1010500005C020E130E002C020E132E0F801B7FE37
:1010600007C060817181828193810C5F1F4F06C030
:101070006081718180E090E00E5F1F4FA3010E94AC
:101080003309882E8618FB2DFF773F2E36FE0DC0C4
:10109000232D2E7FA22E891458F434FE0BC032FC6F
:1010A00009C0832D8E7EA82E05C0B82CA32C03C0AA
:1010B000B82C01C0B92CA4FE0FC0FE01E80DF11D33
:1010C0008081803321F49A2D997EA92E09C0A2FE39
:1010D00006C0B394B39404C08A2D867809F0B39403
:1010E000A3FC11C0A0FE06C0B21488F4280C922CF8
:1010F0009B180EC0B21460F4B60180E290E00E942A
:10110000F708B394F7CFB21418F42B1802C0982C38
:10111000212CA4FE10C0B60180E390E00E94F708E5
:10112000A2FE17C0A1FC03C088E790E002C088E5DA
:1011300090E0B6010CC08A2D867859F0A1FE02C05D
:101140008BE201C080E2A7FC8DE2B60190E00E9434
:10115000F708891438F4B60180E390E00E94F7089C
:101160009A94F7CF8A94F301E80DF11D8081B601BE
:1011700090E00E94F7088110F5CF222009F442CEBA
:10118000B60180E290E00E94F7082A94F6CFF601BB
:101190008681978102C08FEF9FEF2B96E2E10C943E
:1011A000AD09FC010590615070400110D8F78095A1
:1011B00090958E0F9F1F0895FC0161507040019023
:1011C0000110D8F7809590958E0F9F1F0895DC0130
:1011D000FC01672F71917723E1F7329704C07C916E
:1011E0006D9370836291AE17BF07C8F308950F9394
:1011F0001F93CF93DF93FB01238121FD03C08FEF6A
:101200009FEF2CC022FF16C0468157812481358173
:101210004217530744F4A081B1819D012F5F3F4FD6
:10122000318320838C93268137812F5F3F4F378313
:10123000268314C08B01EC01FB010084F185E02DB5
:101240000995892BE1F6D80116968D919C911797F7
:10125000019617969C938E931697CE01DF91CF91AE
:101260001F910F910895FA01AA27283051F12031DA
:1012700081F1E8946F936E7F6E5F7F4F8F4F9F4F2A
:10128000AF4FB1E03ED0B4E03CD0670F781F891F6C
:101290009A1FA11D680F791F8A1F911DA11D6A0F3A
:1012A000711D811D911DA11D20D009F468943F91ED
:1012B0002AE0269F11243019305D3193DEF6CF01EC
:1012C0000895462F4770405D4193B3E00FD0C9F7B2
:1012D000F6CF462F4F70405D4A3318F0495D31FD1F
:1012E0004052419302D0A9F7EACFB4E0A695979572
:1012F000879577956795BA95C9F700976105710548
:1013000008959B01AC010A2E069457954795379591
:101310002795BA95C9F7620F731F841F951FA01DEB
:1013200008952F923F924F925F926F927F928F9289
:101330009F92AF92BF92CF92DF92EF92FF920F9364
:101340001F93CF93DF93CDB7DEB7CA1BDB0B0FB66E
:10135000F894DEBF0FBECDBF09942A88398848882B
:101360005F846E847D848C849B84AA84B984C884C1
:10137000DF80EE80FD800C811B81AA81B981CE0FB8
:10138000D11D0FB6F894DEBF0FBECDBFED0108959D
:04139000F894FFCFFF
:0E139400785B25735D203D2025730D0A000057
:00000001FF
