S00B00006E65772E73726563CF
S11300000C9444000C946C000C946C000C946C00E4
S11300100C946C000C946C000C946C000C946C00AC
S11300200C946C000C946C000C946C000C946C009C
S11300300C946C000C946C000C946C000C946C008C
S11300400C946C000C946C000C946C000C946C007C
S11300500C946C000C946C000C946C000C946C006C
S11300600C946C000C946C0005A84CCDB2D44EB921
S11300703836A9020C50B9918688083CA6AAAA2A47
S1130080BE000000803FB90311241FBECFEFD8E0AB
S1130090DEBFCDBF11E0A0E0B1E0E8E2F3E102C0D1
S11300A005900D92AE31B107D9F723E0AEE1B1E08E
S11300B001C01D92A032B207E1F710E0C4E4D0E021
S11300C004C02197FE010E946206C334D107C9F718
S11300D00E946E000C9492090C9400008FE193E04E
S11300E00E94A60367E670E08FE193E00E94A103FB
S11300F00EE112E07801C0E0D0E0BE010D2E000C4C
S1130100880B990B0E94D9044B015C0120E030E07C
S113011040E850E40E94A4052BED3FE049E450E49C
S11301200E942F040E9411062B013C0120E030E0C4
S113013040E051E4C501B4010E94A4052BED3FE069
S113014049E450E40E942F040E9411064B015C0113
S113015020E030E048E452E4C301B2010E94A40567
S11301602B013C0120E030E048E452E4C501B40135
S11301700E94A4059B01AC01C301B2010E94BE030D
S1130180F70161937193819391937F010E94A1047C
S113019040E051E08EE193E00E94FA002196C034E1
S11301A0D10509F0AACF2EE131E04EE152E066E03C
S11301B080E40E94A8012EE131E04EE152E066E0C5
S11301C080E40E943A03C0E0D0E0F80161917191AB
S11301D0819191918F010E94A10421E131E0AB0151
S11301E0BE018EE193E00E9444012196C034D10502
S11301F061F7FFCFCF92DF92EF92FF920F931F939D
S1130200CF93DF93CDB7DEB7EC970FB6F894DEBF8C
S11302100FBECDBF9B01D42EC52E8E01015E1F4F94
S11302209EE1F801492F11924A95E9F7FE013196B2
S11302307F0111929A95E9F74AE050E0B801C901AB
S11302400E9468061F930F93CF92DF92FF92EF9262
S11302500E949806B7018FE193E00E94B7030F90C4
S11302600F900F900F900F900F90EC960FB6F8949C
S1130270DEBF0FBECDBFDF91CF911F910F91FF90D5
S1130280EF90DF90CF9008958F929F92AF92BF929C
S1130290CF92DF92EF92FF920F931F93CF93DF934E
S11302A0CDB7DEB7EC970FB6F894DEBF0FBECDBF67
S11302B0FB014A01B22EA32E8E010D5C1F4F9AE062
S11302C0D801892F1D928A95E9F77E01A9E2EA0EE9
S11302D0F11CD7011D929A95E9F7CE0101966C01A4
S11302E08EE1D6011D928A95E9F74AE050E0B80103
S11302F0CF010E9468064AE050E0B701C4010E94A1
S11303006806FF92EF921F930F93AF92BF92DF9212
S1130310CF920E949806B6018FE193E00E94B70342
S11303200FB6F894DEBF0FBECDBFEC960FB6F894AF
S1130330DEBF0FBECDBFDF91CF911F910F91FF9014
S1130340EF90DF90CF90BF90AF909F908F900895E3
S11303502F923F924F925F926F927F928F929F92D1
S1130360AF92BF92CF92DF92EF92FF920F931F93BF
S1130370CF93DF93CDB7DEB76F970FB6F894DEBF98
S11303800FBECDBF8A876B8F8A011901682F6695CE
S113039020E031E0482F50E041505109E32FF0E0D4
S11303A0E417F50714F4962F04C021E02B83188674
S11303B04AC0291718F0291B9695FBCF290F32172D
S11303C0D8F5CF01880F991F880F991F3801680E3F
S11303D0791EF301C080D180E280F380F4E02F9F86
S11303E020011124D801A40DB51D8D909D90AD90D0
S11303F0BC901397F30180829182A282B382CD9242
S1130400DD92ED92FC921397D101A80FB91FCD9004
S1130410DD90ED90FC901397F201E20DF31D8080C6
S11304209180A280B3808D929D92AD92BC921397DD
S1130430C082D182E282F3823F5FB0CF78857F5F52
S1130440788789858B83F8852B8DF21709F4F9C099
S11304503B81330F3987632F70E080E090E00E9486
S1130460D9049B01AC016BED7FE089EC90EC0E9418
S11304702F046F8B788F898F9A8F1C821D821E8226
S11304801F8219829B81892F90E09D8F8C8FE98137
S1130490FB81EF1799F26C817D818E819F810E948F
S11304A02A046B877C878D879E876C817D818E81F2
S11304B09F810E9411066F87788B898B9A8B2F8975
S11304C0388D498D5A8D6C817D818E819F810E94EA
S11304D0BE036C837D838E839F8329812A833A8123
S11304E07A85371708F0A9C0832F90E09F8F8E8FED
S11304F08C8D9D8DEE8DFF8D8E0F9F1F880F991F04
S1130500880F991F9801280F391F3C8B2B8BF901F9
S113051040805180628073809101280F391F3E8B87
S11305202D8BF90180809180A280B380A301920178
S11305306B857C858D859E850E94A4056B017C015D
S1130540A50194016F85788989899A890E94A405F7
S11305509B01AC01C701B6010E94BD036B017C0184
S1130560A30192016F85788989899A890E94A405DB
S11305702B013C01A50194016B857C858D859E85AD
S11305800E94A4059B01AC01C301B2010E94BE03F9
S11305904B015C012E8D3F8D220F331F220F331F21
S11305A03F8F2E8F3901600E711EA7019601F30152
S11305B060817181828193810E94BD03EB89FC89F2
S11305C060837183828393832E8D3F8D220D331D2F
S11305D03C8B2B8BA5019401EB89FC896081718193
S11305E0828193810E94BD03ED89FE8960837183BA
S11305F082839383A7019601F301608171818281D3
S113060093810E94BE03F301608371838283938389
S1130610A5019401EB89FC896081718182819381B8
S11306200E94BE03EB89FC89608371838283938378
S1130630FA812985F20FFA8352CF39813F5F3983DA
S113064026CF6F960FB6F894DEBF0FBECDBFDF91F5
S1130650CF911F910F91FF90EF90DF90CF90BF90BB
S1130660AF909F908F907F906F905F904F903F904E
S11306702F9008954F925F926F927F928F929F92E4
S1130680AF92BF92EF92FF920F931F93CF93DF939A
S1130690E82ED42FC52FB22EF32E242F352F4B2D19
S11306A05F2D0E94A8010D2F1C2FCB2DDF2DF12CC7
S11306B04E2C512C612C712CFE1459F1C301B20142
S11306C00E94D9049B01AC0160E070E080E89FE3E4
S11306D00E942F044B015C019B01AC01F801608175
S11306E07181828193810E94A405F80161937193C1
S11306F0819391938F01A5019401688179818A8105
S11307009B810E94A4056993799389939993F394A7
S1130710D3CFDF91CF911F910F91FF90EF90BF90B6
S1130720AF909F908F907F906F905F904F900895BF
S113073088E18093C1001092C50083E18093C400D6
S113074008957093C5006093C400089588E1809370
S1130750C1000895FB018191BF01882339F0909174
S1130760C00095FFFCCF8093C600F4CF08950C948D
S1130770AA038FE193E00C9498035058BB27AA274F
S11307800E94D5030C9456050E941D0538F00E9462
S1130790240520F039F49F3F19F426F40C941A052B
S11307A00EF4E095E7FB0C941405E92F0E947B05F9
S11307B058F3BA17620773078407950720F079F492
S11307C0A6F50C949D050EF4E0950B2EBA2FA02DE2
S11307D00B01B90190010C01CA01A0011124FF27EA
S11307E0591B99F0593F50F4503E68F11A16F040E5
S11307F0A22F232F342F4427585FF3CF46953795E4
S11308002795A795F0405395C9F77EF41F16BA0BA8
S1130810620B730B840BBAF09150A1F0FF0FBB1F56
S1130820661F771F881FC2F70EC0BA0F621F731F9F
S1130830841F48F4879577956795B795F7959E3FFC
S113084008F0B0CF9395880F08F09927EE0F97958D
S1130850879508950E942D05E3950C9467050E94E1
S113086043040C9456050E94240558F00E941D056B
S113087040F029F45F3F29F00C94140551110C94B5
S11308809E050C941A050E947B0568F39923B1F325
S1130890552391F3951B550BBB27AA2762177307A2
S11308A0840738F09F5F5F4F220F331F441FAA1F36
S11308B0A9F335D00E2E3AF0E0E832D091505040F2
S11308C0E695001CCAF72BD0FE2F29D0660F771FA0
S11308D0881FBB1F261737074807AB07B0E809F086
S11308E0BB0B802DBF01FF2793585F4F3AF09E3F0B
S11308F0510578F00C9414050C949E055F3FE4F3C5
S1130900983ED4F3869577956795B795F7959F5F4D
S1130910C9F7880F911D9695879597F90895E1E099
S1130920660F771F881FBB1F621773078407BA07F8
S113093020F0621B730B840BBA0BEE1F88F7E09553
S113094008950E94A8046894B1110C949E0508951A
S11309500E94830588F09F5798F0B92F9927B751C3
S1130960B0F0E1F0660F771F881F991F1AF0BA954F
S1130970C9F714C0B13091F00E949D05B1E008950B
S11309800C949D05672F782F8827B85F39F0B93FFD
S1130990CCF3869577956795B395D9F73EF4909502
S11309A08095709561957F4F8F4F9F4F0895E89480
S11309B009C097FB3EF490958095709561957F4FA3
S11309C08F4F9F4F9923A9F0F92F96E9BB27939551
S11309D0F695879577956795B795F111F8CFFAF461
S11309E0BB0F11F460FF1BC06F5F7F4F8F4F9F4F92
S11309F016C0882311F096E911C0772321F09EE8F0
S1130A00872F762F05C0662371F096E8862F70E055
S1130A1060E02AF09A95660F771F881FDAF7880F2F
S1130A209695879597F9089597F99F6780E870E000
S1130A3060E008959FEF80EC089500240A94161650
S1130A40170618060906089500240A9412161306B8
S1130A501406050608950C941A050E948305D8F31C
S1130A60E894E0E0BB279F57F0F02AED3FE049EC23
S1130A7006C0EE0FBB0F661F771F881F28F0B23A1F
S1130A8062077307840728F0B25A620B730B840B56
S1130A90E3959A9572F7803830F49A95BB0F661FE8
S1130AA0771F881FD2F790480C941B06092E0394D5
S1130AB0000C11F4882352F0BB0F40F4BF2B11F447
S1130AC060FF04C06F5F7F4F8F4F9F4F0895EF9378
S1130AD0E0FF07C0A2EA2AED3FE049EC5FEB0E9489
S1130AE0D5030E9456050F90039401FC9058E8E644
S1130AF0F0E00C94270657FD9058440F551F59F009
S1130B005F3F71F04795880F97FB991F61F09F3FF6
S1130B1079F087950895121613061406551FF2CF1F
S1130B204695F1DF08C0161617061806991FF1CF6F
S1130B3086957105610508940895E894BB27662796
S1130B407727CB0197F908950E94B7050C945605B1
S1130B500E941D0538F00E94240520F0952311F011
S1130B600C9414050C941A0511240C949E050E94EF
S1130B707B0570F3959FC1F3950F50E0551F629F5D
S1130B80F001729FBB27F00DB11D639FAA27F00DE2
S1130B90B11DAA1F649F6627B00DA11D661F829F09
S1130BA02227B00DA11D621F739FB00DA11D621FEE
S1130BB0839FA00D611D221F749F3327A00D611D0B
S1130BC0231F849F600D211D822F762F6A2F1124ED
S1130BD09F5750409AF0F1F088234AF0EE0FFF1F20
S1130BE0BB1F661F771F881F91505040A9F79E3F77
S1130BF0510580F00C9414050C949E055F3FE4F3BA
S1130C00983ED4F3869577956795B795F795E795CC
S1130C109F5FC1F7FE2B880F911D9695879597F9D5
S1130C2008959F930E942D050F9007FCEE5F0C948E
S1130C3067059F3F31F0915020F48795779567952C
S1130C40B795880F911D9695879597F908959F9369
S1130C508F937F936F93FF93EF939B01AC010E945B
S1130C60A405EF91FF910E943B062F913F914F9174
S1130C705F910C94A405DF93CF931F930F93FF927E
S1130C80EF92DF927B018C01689406C0DA2EEF01AB
S1130C900E94B705FE01E894A591259135914591EF
S1130CA05591A6F3EF010E94D503FE019701A80117
S1130CB0DA9469F7DF90EF90FF900F911F91CF9135
S1130CC0DF910895EE0FFF1F0590F491E02D099434
S1130CD04532510520F4423010F00C947306FB01A8
S1130CE01082CB010895BB274A3031F4992322F4B2
S1130CF0BDE2909581959F4F0C947F06BB27FB0125
S1130D005527AA27880F991FAA1FA41710F0A41B00
S1130D1083955051B9F7A05DAA3308F0A95DA1935A
S1130D20009779F7B111B1931192CB010C94B108EA
S1130D30AEE0B0E0EEE9F6E00C9469090D891E8995
S1130D4086E08C831A8309838FEF9FE79E838D83CC
S1130D50AE01475E5F4F6F89788DCE0101960E9488
S1130D60BA06EF81F885E00FF11F10822E96E4E0B9
S1130D700C948509ABE0B0E0E0ECF6E00C945B0980
S1130D806C017B018A01FC0117821682838181FF39
S1130D90CCC1CE0101963C01F6019381F70193FD8C
S1130DA0859193FF81917F01882309F4BAC185322B
S1130DB039F493FD859193FF81917F01853229F464
S1130DC0B60190E00E94C108E7CF912C212C312C70
S1130DD0FFE1F315D8F08B3279F038F4803279F0F2
S1130DE08332A1F4232D20611DC08D3261F0803344
S1130DF069F4232D216016C0832D8260382EE32DE3
S1130E00E4603E2E2AC0F32DF8601DC037FC2DC0CF
S1130E1020ED280F2A3040F08E32B9F436FC81C11F
S1130E20232D2064322E19C036FE06C08AE0989E17
S1130E30200D1124922E11C0EAE02E9E200D1124C3
S1130E40222EF32DF0623F2E08C08C3621F4832D20
S1130E508068382E02C0883641F4F70193FD8591ED
S1130E6093FF81917F018111B3CF982F9F7D95547A
S1130E70933028F40C5F1F4F9FE399830DC0833692
S1130E8031F0833771F0833509F059C021C0F8017E
S1130E90808189830E5F1F4F88248394912C530192
S1130EA013C02801F2E04F0E511CF801A080B1805C
S1130EB036FE03C0692D70E002C06FEF7FEFC501FD
S1130EC00E94A6084C018201F32DFF773F2E16C025
S1130ED0280122E0420E511CF801A080B18036FEA8
S1130EE003C0692D70E002C06FEF7FEFC5010E945F
S1130EF09B084C01F32DF0683F2E820133FC1BC08C
S1130F00822D90E088169906B0F4B60180E290E054
S1130F100E94C1082A94F4CFF50137FC859137FE6D
S1130F2081915F01B60190E00E94C10821102A94CA
S1130F3021E0821A91088114910471F7E8C0843683
S1130F4011F0893641F5F80137FE07C060817181DF
S1130F50828193810C5F1F4F08C060817181072ECD
S1130F60000C880B990B0E5F1F4FF32DFF763F2E5D
S1130F7097FF09C090958095709561957F4F8F4F2D
S1130F809F4FF0683F2E2AE030E0A3010E94FD0845
S1130F90882E861845C0853731F4232D2F7EB22E36
S1130FA02AE030E025C0932D997FB92E8F36C1F009
S1130FB018F4883579F0B5C0803719F0883721F0F6
S1130FC0B0C0E92FE061BE2EB4FE0DC0FB2DF4606D
S1130FD0BF2E09C034FE0AC0292F2660B22E06C0D7
S1130FE028E030E005C020E130E002C020E132E03A
S1130FF0F801B7FE07C060817181828193810C5F23
S11310001F4F06C06081718180E090E00E5F1F4F2A
S1131010A3010E94FD08882E8618FB2DFF773F2E22
S113102036FE0DC0232D2E7FA22E891458F434FED3
S11310300BC032FC09C0832D8E7EA82E05C0B82CAF
S1131040A32C03C0B82C01C0B92CA4FE0FC0FE0110
S1131050E80DF11D8081803321F49A2D997EA92E0B
S113106009C0A2FE06C0B394B39404C08A2D867846
S113107009F0B394A3FC11C0A0FE06C0B21488F416
S1131080280C922C9B180EC0B21460F4B60180E2B6
S113109090E00E94C108B394F7CFB21418F42B184F
S11310A002C0982C212CA4FE10C0B60180E390E06D
S11310B00E94C108A2FE17C0A1FC03C088E790E00B
S11310C002C088E590E0B6010CC08A2D867859F0FC
S11310D0A1FE02C08BE201C080E2A7FC8DE2B60152
S11310E090E00E94C108891438F4B60180E390E0CE
S11310F00E94C1089A94F7CF8A94F301E80DF11D78
S11311008081B60190E00E94C1088110F5CF2220B1
S113111009F442CEB60180E290E00E94C1082A940C
S1131120F6CFF6018681978102C08FEF9FEF2B9651
S1131130E2E10C947709FC010590615070400110C4
S1131140D8F7809590958E0F9F1F0895FC016150EC
S1131150704001900110D8F7809590958E0F9F1FD5
S11311600895DC01FC01672F71917723E1F7329731
S113117004C07C916D9370836291AE17BF07C8F36E
S113118008950F931F93CF93DF93FB01238121FDD8
S113119003C08FEF9FEF2CC022FF16C046815781FA
S11311A0248135814217530744F4A081B1819D0104
S11311B02F5F3F4F318320838C93268137812F5FAC
S11311C03F4F3783268314C08B01EC01FB0100845D
S11311D0F185E02D0995892BE1F6D80116968D91BC
S11311E09C911797019617969C938E931697CE0110
S11311F0DF91CF911F910F910895FA01AA2728300A
S113120051F1203181F1E8946F936E7F6E5F7F4FCF
S11312108F4F9F4FAF4FB1E03ED0B4E03CD0670F4B
S1131220781F891F9A1FA11D680F791F8A1F911D9E
S1131230A11D6A0F711D811D911DA11D20D009F4EE
S113124068943F912AE0269F11243019305D319330
S1131250DEF6CF010895462F4770405D4193B3E019
S11312600FD0C9F7F6CF462F4F70405D4A3318F0C0
S1131270495D31FD4052419302D0A9F7EACFB4E071
S1131280A6959795879577956795BA95C9F7009729
S11312906105710508959B01AC010A2E06945795CA
S11312A0479537952795BA95C9F7620F731F841F21
S11312B0951FA01D08952F923F924F925F926F92B7
S11312C07F928F929F92AF92BF92CF92DF92EF92D2
S11312D0FF920F931F93CF93DF93CDB7DEB7CA1B53
S11312E0DB0B0FB6F894DEBF0FBECDBF09942A887E
S11312F0398848885F846E847D848C849B84AA8426
S1131300B984C884DF80EE80FD800C811B81AA81B2
S1131310B981CE0FD11D0FB6F894DEBF0FBECDBF7D
S10B1320ED010895F894FFCFDC
S1131328207261772064617461203A2025730D0A64
S111133800785B25735D203D2025730D0A00AF
S9030000FC
