S00B00006E65772E73726563CF
S11300000C9435000C945D000C945D000C945D0020
S11300100C945D000C945D000C945D000C945D00E8
S11300200C945D000C945D000C945D000C945D00D8
S11300300C945D000C945D000C945D000C945D00C8
S11300400C945D000C945D000C945D000C945D00B8
S11300500C945D000C945D000C945D000C945D00A8
S11300600C945D000C945D00C40011241FBECFEFFE
S1130070D8E0DEBFCDBF21E0A6E0B1E001C01D9213
S1130080AB30B207E1F711E0A0E0B1E0E2EEF3E05B
S113009002C005900D92A630B107D9F710E0C5E370
S11300A0D0E004C02197FE010E94C800C433D107E8
S11300B0C9F70E9482000C94EF010C940000CF93C6
S11300C0DF9300D000D0CDB7DEB769837A838B830A
S11300D09C8389819A81AB81BC81AC01BD01415073
S11300E051096109710949835A836B837C83892B84
S11300F08A2B8B2B71F70F900F900F900F90DF913D
S1130100CF91089584E690E00E94CE00009709F410
S1130110FFCFFC018C599F4F1192E817F907E1F7C3
S113012086E091E00E94B90063E070E086E091E02F
S11301300E94B4006FEF7FEF88E090E00E945F00C0
S11301406EB786E091E00E94BD006DB786E091E055
S11301500E94BD00EFCF88E18093C1001092C500DA
S113016083E18093C40008957093C5006093C40034
S1130170089588E18093C10008958091C00085FFAF
S1130180FCCF6093C600089586E091E00C94AB0028
S1130190EE0FFF1F0590F491E02D09940F931F9328
S11301A0CF93DF938230910510F482E090E0E091E8
S11301B00901F0910A0120E030E0A0E0B0E03097BE
S11301C019F1408151810281138148175907C8F000
S11301D08417950769F4109731F012960C931297CF
S11301E013961C9327C00093090110930A0122C09F
S11301F02115310519F04217530718F49A01BD016E
S1130200EF01DF01F801DBCF21153105F9F0281BDF
S1130210390B2430310580F48A819B816115710585
S113022021F0FB019383828304C090930A0180939D
S11302300901FE01329644C0FE01E20FF31F8193CF
S1130240919322503109398328833AC020910701C0
S113025030910801232B41F42091020130910301D4
S1130260309308012093070120910001309101018E
S11302702115310541F42DB73EB740910401509149
S11302800501241B350BE0910701F0910801E217E9
S1130290F307A0F42E1B3F0B2817390778F0AC01A5
S11302A04E5F5F4F2417350748F04E0F5F1F509382
S11302B00801409307018193919302C0E0E0F0E0CC
S11302C0CF01DF91CF911F910F910895CF93DF93C9
S11302D0009709F481C0FC01329713821282A09125
S11302E00901B0910A01109781F420813181820FB4
S11302F0931F20910701309108012817390751F500
S1130300F0930801E093070167C0ED0120E030E0BD
S1130310CE17DF0740F44A815B819E0141155105E8
S1130320F1F0EA01F5CFD383C28340815181840F78
S1130330951FC817D90759F488819981840F951F8F
S11303400296918380838A819B8193838283211582
S1130350310529F4F0930A01E09309013DC0E90154
S1130360FB83EA8349915991C40FD51FEC17FD070C
S113037061F480819181840F951F0296E90199832C
S11303808883828193819B838A83E0E0F0E01296E4
S11303908D919C911397009719F0FD01DC01F7CF23
S11303A08D919C9111979D012E5F3F4F820F931F5A
S11303B020910701309108012817390769F4309713
S11303C029F410920A011092090102C013821282C8
S11303D0B0930801A0930701DF91CF910895F89499
S10503E0FFCF49
S10903E200000B012000E5
S9030000FC
